{
    "_format": "hh-sol-artifact-1",
    "contractName": "EncodeBattles",
    "sourceName": "contracts/EncodeBattles.sol",
    "abi": [
        {
            "inputs": [
                {
                    "internalType": "uint256",
                    "name": "_winnerRewardAmount",
                    "type": "uint256"
                },
                {
                    "internalType": "uint256",
                    "name": "_loserRewardAmount",
                    "type": "uint256"
                },
                {
                    "internalType": "address",
                    "name": "_paymentToken",
                    "type": "address"
                }
            ],
            "stateMutability": "nonpayable",
            "type": "constructor"
        },
        {
            "inputs": [],
            "name": "EncodeBattles__BattleStillUndecided",
            "type": "error"
        },
        {
            "anonymous": false,
            "inputs": [
                {
                    "indexed": false,
                    "internalType": "uint256",
                    "name": "battleId",
                    "type": "uint256"
                },
                {
                    "indexed": false,
                    "internalType": "address",
                    "name": "player1",
                    "type": "address"
                },
                {
                    "indexed": false,
                    "internalType": "address",
                    "name": "player2",
                    "type": "address"
                },
                {
                    "indexed": false,
                    "internalType": "uint256",
                    "name": "player1Power",
                    "type": "uint256"
                },
                {
                    "indexed": false,
                    "internalType": "uint256",
                    "name": "player2Power",
                    "type": "uint256"
                },
                {
                    "indexed": false,
                    "internalType": "enum EncodeBattles.BattleResult",
                    "name": "",
                    "type": "uint8"
                },
                {
                    "indexed": false,
                    "internalType": "uint256",
                    "name": "timestamp",
                    "type": "uint256"
                }
            ],
            "name": "BattleCompleted",
            "type": "event"
        },
        {
            "anonymous": false,
            "inputs": [
                {
                    "indexed": false,
                    "internalType": "address",
                    "name": "player1",
                    "type": "address"
                },
                {
                    "indexed": false,
                    "internalType": "uint256",
                    "name": "timestamp",
                    "type": "uint256"
                }
            ],
            "name": "BattleOpened",
            "type": "event"
        },
        {
            "inputs": [],
            "name": "i_loserRewardAmount",
            "outputs": [
                {
                    "internalType": "uint256",
                    "name": "",
                    "type": "uint256"
                }
            ],
            "stateMutability": "view",
            "type": "function"
        },
        {
            "inputs": [],
            "name": "i_winnerRewardAmount",
            "outputs": [
                {
                    "internalType": "uint256",
                    "name": "",
                    "type": "uint256"
                }
            ],
            "stateMutability": "view",
            "type": "function"
        },
        {
            "inputs": [
                {
                    "internalType": "uint256",
                    "name": "",
                    "type": "uint256"
                }
            ],
            "name": "s_battleHistory",
            "outputs": [
                {
                    "internalType": "uint256",
                    "name": "battleId",
                    "type": "uint256"
                },
                {
                    "internalType": "uint256",
                    "name": "timestamp_open",
                    "type": "uint256"
                },
                {
                    "internalType": "uint256",
                    "name": "timestamp_completed",
                    "type": "uint256"
                },
                {
                    "internalType": "address",
                    "name": "player1",
                    "type": "address"
                },
                {
                    "internalType": "address",
                    "name": "player2",
                    "type": "address"
                },
                {
                    "internalType": "uint256",
                    "name": "nft1Id",
                    "type": "uint256"
                },
                {
                    "internalType": "uint256",
                    "name": "nft2Id",
                    "type": "uint256"
                },
                {
                    "internalType": "uint256",
                    "name": "nft1Power",
                    "type": "uint256"
                },
                {
                    "internalType": "uint256",
                    "name": "nft2Power",
                    "type": "uint256"
                },
                {
                    "internalType": "enum EncodeBattles.BattleResult",
                    "name": "battleResult",
                    "type": "uint8"
                },
                {
                    "components": [
                        {
                            "internalType": "uint256",
                            "name": "winnerReward",
                            "type": "uint256"
                        },
                        {
                            "internalType": "uint256",
                            "name": "loserReward",
                            "type": "uint256"
                        }
                    ],
                    "internalType": "struct EncodeBattles.BattleRewards",
                    "name": "battleRewards",
                    "type": "tuple"
                }
            ],
            "stateMutability": "view",
            "type": "function"
        },
        {
            "inputs": [
                {
                    "internalType": "uint256",
                    "name": "_tokenId",
                    "type": "uint256"
                },
                {
                    "internalType": "uint256",
                    "name": "_tokenPower",
                    "type": "uint256"
                }
            ],
            "name": "submitForBattle",
            "outputs": [],
            "stateMutability": "nonpayable",
            "type": "function"
        }
    ],
    "bytecode": "0x60e06040526001805560016002553480156200001a57600080fd5b50604051620013ba380380620013ba83398181016040528101906200004091906200013a565b82608081815250508160a081815250508073ffffffffffffffffffffffffffffffffffffffff1660c08173ffffffffffffffffffffffffffffffffffffffff1681525050600160008190555050505062000196565b600080fd5b6000819050919050565b620000af816200009a565b8114620000bb57600080fd5b50565b600081519050620000cf81620000a4565b92915050565b600073ffffffffffffffffffffffffffffffffffffffff82169050919050565b60006200010282620000d5565b9050919050565b6200011481620000f5565b81146200012057600080fd5b50565b600081519050620001348162000109565b92915050565b60008060006060848603121562000156576200015562000095565b5b60006200016686828701620000be565b93505060206200017986828701620000be565b92505060406200018c8682870162000123565b9150509250925092565b60805160a05160c0516111d2620001e860003960008181610a630152610af401526000818160e501526102f8015260008181610211015281816102d20152818161093f015261097501526111d26000f3fe608060405234801561001057600080fd5b506004361061004c5760003560e01c806301d1eb321461005157806318f818d71461006f5780633de842cf1461008b578063f97f3da1146100c5575b600080fd5b6100596100e3565b6040516100669190610db3565b60405180910390f35b61008960048036038101906100849190610dff565b610107565b005b6100a560048036038101906100a09190610e3f565b61013a565b6040516100bc9b9a99989796959493929190610f62565b60405180910390f35b6100cd61020f565b6040516100da9190610db3565b60405180910390f35b7f000000000000000000000000000000000000000000000000000000000000000081565b6000610111610233565b9050806101295761012333848461025b565b50610136565b610134338484610384565b505b5050565b6004818154811061014a57600080fd5b90600052602060002090600c02016000915090508060000154908060010154908060020154908060030160009054906101000a900473ffffffffffffffffffffffffffffffffffffffff16908060040160009054906101000a900473ffffffffffffffffffffffffffffffffffffffff16908060050154908060060154908060070154908060080154908060090160009054906101000a900460ff169080600a016040518060400160405290816000820154815260200160018201548152505090508b565b7f000000000000000000000000000000000000000000000000000000000000000081565b60008061023e6104e2565b905060008103610252576000915050610258565b60019150505b90565b610263610ce2565b6000548160000181815250504281602001818152505083816060019073ffffffffffffffffffffffffffffffffffffffff16908173ffffffffffffffffffffffffffffffffffffffff1681525050828160a0018181525050818160e001818152505060405180604001604052807f000000000000000000000000000000000000000000000000000000000000000081526020017f00000000000000000000000000000000000000000000000000000000000000008152508161014001819052506001600080828254610335919061103c565b92505081905550610345816104f9565b7fd685fe24580b6dfe2f269ca92ab2f95ded29437d89ae3c4dd270260a025500b98442604051610376929190611070565b60405180910390a150505050565b600061038e610655565b905083816080019073ffffffffffffffffffffffffffffffffffffffff16908173ffffffffffffffffffffffffffffffffffffffff1681525050828160c001818152505081816101000181815250504281604001818152505060006103fc8260e001518361010001516108d0565b905080826101200190600381111561041757610416610ead565b5b9081600381111561042b5761042a610ead565b5b815250506000806104408461012001516108fe565b91509150811561045557808461014001819052505b7f5f44812858d5235f999b25e7cd6944e8a0a3ac3f6ddcea393fdbc09bcb1bb7598460000151856060015186608001518760e00151886101000151896101200151426040516104aa9796959493929190611099565b60405180910390a16104d084610120015185606001518660800151876101400151610a20565b6104d984610b8b565b50505050505050565b60006001546002546104f49190611108565b905090565b8060036000600254815260200190815260200160002060008201518160000155602082015181600101556040820151816002015560608201518160030160006101000a81548173ffffffffffffffffffffffffffffffffffffffff021916908373ffffffffffffffffffffffffffffffffffffffff16021790555060808201518160040160006101000a81548173ffffffffffffffffffffffffffffffffffffffff021916908373ffffffffffffffffffffffffffffffffffffffff16021790555060a0820151816005015560c0820151816006015560e0820151816007015561010082015181600801556101208201518160090160006101000a81548160ff021916908360038111156106105761060f610ead565b5b021790555061014082015181600a016000820151816000015560208201518160010155505090505060016002600082825461064b919061103c565b9250508190555050565b61065d610ce2565b6001546002541161066d57600080fd5b6000600360006001548152602001908152602001600020604051806101600160405290816000820154815260200160018201548152602001600282015481526020016003820160009054906101000a900473ffffffffffffffffffffffffffffffffffffffff1673ffffffffffffffffffffffffffffffffffffffff1673ffffffffffffffffffffffffffffffffffffffff1681526020016004820160009054906101000a900473ffffffffffffffffffffffffffffffffffffffff1673ffffffffffffffffffffffffffffffffffffffff1673ffffffffffffffffffffffffffffffffffffffff168152602001600582015481526020016006820154815260200160078201548152602001600882015481526020016009820160009054906101000a900460ff1660038111156107a7576107a6610ead565b5b60038111156107b9576107b8610ead565b5b8152602001600a820160405180604001604052908160008201548152602001600182015481525050815250509050600360006001548152602001908152602001600020600080820160009055600182016000905560028201600090556003820160006101000a81549073ffffffffffffffffffffffffffffffffffffffff02191690556004820160006101000a81549073ffffffffffffffffffffffffffffffffffffffff021916905560058201600090556006820160009055600782016000905560088201600090556009820160006101000a81549060ff0219169055600a820160008082016000905560018201600090555050505060018060008282546108c2919061103c565b925050819055508091505090565b60008183036108e257600390506108f8565b818311156108f357600190506108f8565b600290505b92915050565b6000610908610d80565b610910610d80565b60038081111561092357610922610ead565b5b84600381111561093657610935610ead565b5b036109b45760027f0000000000000000000000000000000000000000000000000000000000000000610968919061116b565b81600001818152505060027f000000000000000000000000000000000000000000000000000000000000000061099e919061116b565b8160200181815250506001819250925050610a1b565b600060038111156109c8576109c7610ead565b5b8460038111156109db576109da610ead565b5b03610a12576040517f2606012e00000000000000000000000000000000000000000000000000000000815260040160405180910390fd5b60008192509250505b915091565b60008060026003811115610a3757610a36610ead565b5b866003811115610a4a57610a49610ead565b5b03610a5a57839150849050610a61565b8491508390505b7f000000000000000000000000000000000000000000000000000000000000000073ffffffffffffffffffffffffffffffffffffffff166340c10f198385600001516040518363ffffffff1660e01b8152600401610ac0929190611070565b600060405180830381600087803b158015610ada57600080fd5b505af1158015610aee573d6000803e3d6000fd5b505050507f000000000000000000000000000000000000000000000000000000000000000073ffffffffffffffffffffffffffffffffffffffff166340c10f198285602001516040518363ffffffff1660e01b8152600401610b51929190611070565b600060405180830381600087803b158015610b6b57600080fd5b505af1158015610b7f573d6000803e3d6000fd5b50505050505050505050565b60048190806001815401808255809150506001900390600052602060002090600c020160009091909190915060008201518160000155602082015181600101556040820151816002015560608201518160030160006101000a81548173ffffffffffffffffffffffffffffffffffffffff021916908373ffffffffffffffffffffffffffffffffffffffff16021790555060808201518160040160006101000a81548173ffffffffffffffffffffffffffffffffffffffff021916908373ffffffffffffffffffffffffffffffffffffffff16021790555060a0820151816005015560c0820151816006015560e0820151816007015561010082015181600801556101208201518160090160006101000a81548160ff02191690836003811115610cb857610cb7610ead565b5b021790555061014082015181600a0160008201518160000155602082015181600101555050505050565b604051806101600160405280600081526020016000815260200160008152602001600073ffffffffffffffffffffffffffffffffffffffff168152602001600073ffffffffffffffffffffffffffffffffffffffff1681526020016000815260200160008152602001600081526020016000815260200160006003811115610d6d57610d6c610ead565b5b8152602001610d7a610d80565b81525090565b604051806040016040528060008152602001600081525090565b6000819050919050565b610dad81610d9a565b82525050565b6000602082019050610dc86000830184610da4565b92915050565b600080fd5b610ddc81610d9a565b8114610de757600080fd5b50565b600081359050610df981610dd3565b92915050565b60008060408385031215610e1657610e15610dce565b5b6000610e2485828601610dea565b9250506020610e3585828601610dea565b9150509250929050565b600060208284031215610e5557610e54610dce565b5b6000610e6384828501610dea565b91505092915050565b600073ffffffffffffffffffffffffffffffffffffffff82169050919050565b6000610e9782610e6c565b9050919050565b610ea781610e8c565b82525050565b7f4e487b7100000000000000000000000000000000000000000000000000000000600052602160045260246000fd5b60048110610eed57610eec610ead565b5b50565b6000819050610efe82610edc565b919050565b6000610f0e82610ef0565b9050919050565b610f1e81610f03565b82525050565b610f2d81610d9a565b82525050565b604082016000820151610f496000850182610f24565b506020820151610f5c6020850182610f24565b50505050565b600061018082019050610f78600083018e610da4565b610f85602083018d610da4565b610f92604083018c610da4565b610f9f606083018b610e9e565b610fac608083018a610e9e565b610fb960a0830189610da4565b610fc660c0830188610da4565b610fd360e0830187610da4565b610fe1610100830186610da4565b610fef610120830185610f15565b610ffd610140830184610f33565b9c9b505050505050505050505050565b7f4e487b7100000000000000000000000000000000000000000000000000000000600052601160045260246000fd5b600061104782610d9a565b915061105283610d9a565b925082820190508082111561106a5761106961100d565b5b92915050565b60006040820190506110856000830185610e9e565b6110926020830184610da4565b9392505050565b600060e0820190506110ae600083018a610da4565b6110bb6020830189610e9e565b6110c86040830188610e9e565b6110d56060830187610da4565b6110e26080830186610da4565b6110ef60a0830185610f15565b6110fc60c0830184610da4565b98975050505050505050565b600061111382610d9a565b915061111e83610d9a565b92508282039050818111156111365761113561100d565b5b92915050565b7f4e487b7100000000000000000000000000000000000000000000000000000000600052601260045260246000fd5b600061117682610d9a565b915061118183610d9a565b9250826111915761119061113c565b5b82820490509291505056fea26469706673582212207f9e541c36c5188c1eb0a32d11f79879b2fd3dc677e016b4d19a05c9bde5f29264736f6c63430008130033",
    "linkReferences": {},
    "deployedLinkReferences": {}
}