{
    "_format": "hh-sol-artifact-1",
    "contractName": "GroupFiveCollection",
    "sourceName": "contracts/GroupFiveCollection.sol",
    "abi": [
        {
            "inputs": [
                {
                    "internalType": "address",
                    "name": "vrfCoordinatorV2",
                    "type": "address"
                },
                {
                    "internalType": "uint64",
                    "name": "subscriptionId",
                    "type": "uint64"
                },
                {
                    "internalType": "bytes32",
                    "name": "gasLane",
                    "type": "bytes32"
                },
                {
                    "internalType": "uint32",
                    "name": "callbackGasLimit",
                    "type": "uint32"
                },
                {
                    "internalType": "string[5]",
                    "name": "nftUris",
                    "type": "string[5]"
                }
            ],
            "stateMutability": "nonpayable",
            "type": "constructor"
        },
        {
            "inputs": [],
            "name": "GroupFiveCollection__AlreadyInitialized",
            "type": "error"
        },
        {
            "inputs": [],
            "name": "GroupFiveCollection__RangeOutOfBounds",
            "type": "error"
        },
        {
            "inputs": [
                {
                    "internalType": "address",
                    "name": "have",
                    "type": "address"
                },
                {
                    "internalType": "address",
                    "name": "want",
                    "type": "address"
                }
            ],
            "name": "OnlyCoordinatorCanFulfill",
            "type": "error"
        },
        {
            "anonymous": false,
            "inputs": [
                {
                    "indexed": true,
                    "internalType": "address",
                    "name": "owner",
                    "type": "address"
                },
                {
                    "indexed": true,
                    "internalType": "address",
                    "name": "approved",
                    "type": "address"
                },
                {
                    "indexed": true,
                    "internalType": "uint256",
                    "name": "tokenId",
                    "type": "uint256"
                }
            ],
            "name": "Approval",
            "type": "event"
        },
        {
            "anonymous": false,
            "inputs": [
                {
                    "indexed": true,
                    "internalType": "address",
                    "name": "owner",
                    "type": "address"
                },
                {
                    "indexed": true,
                    "internalType": "address",
                    "name": "operator",
                    "type": "address"
                },
                {
                    "indexed": false,
                    "internalType": "bool",
                    "name": "approved",
                    "type": "bool"
                }
            ],
            "name": "ApprovalForAll",
            "type": "event"
        },
        {
            "anonymous": false,
            "inputs": [
                {
                    "indexed": false,
                    "internalType": "uint256",
                    "name": "_fromTokenId",
                    "type": "uint256"
                },
                {
                    "indexed": false,
                    "internalType": "uint256",
                    "name": "_toTokenId",
                    "type": "uint256"
                }
            ],
            "name": "BatchMetadataUpdate",
            "type": "event"
        },
        {
            "anonymous": false,
            "inputs": [
                {
                    "indexed": false,
                    "internalType": "uint256",
                    "name": "_tokenId",
                    "type": "uint256"
                }
            ],
            "name": "MetadataUpdate",
            "type": "event"
        },
        {
            "anonymous": false,
            "inputs": [
                {
                    "indexed": false,
                    "internalType": "uint256",
                    "name": "powerLevel",
                    "type": "uint256"
                },
                {
                    "indexed": false,
                    "internalType": "address",
                    "name": "owner",
                    "type": "address"
                },
                {
                    "indexed": false,
                    "internalType": "uint256",
                    "name": "tokenId",
                    "type": "uint256"
                }
            ],
            "name": "NftMinted",
            "type": "event"
        },
        {
            "anonymous": false,
            "inputs": [
                {
                    "indexed": true,
                    "internalType": "uint256",
                    "name": "requestId",
                    "type": "uint256"
                },
                {
                    "indexed": false,
                    "internalType": "address",
                    "name": "requester",
                    "type": "address"
                }
            ],
            "name": "NftRequested",
            "type": "event"
        },
        {
            "anonymous": false,
            "inputs": [
                {
                    "indexed": true,
                    "internalType": "bytes32",
                    "name": "role",
                    "type": "bytes32"
                },
                {
                    "indexed": true,
                    "internalType": "bytes32",
                    "name": "previousAdminRole",
                    "type": "bytes32"
                },
                {
                    "indexed": true,
                    "internalType": "bytes32",
                    "name": "newAdminRole",
                    "type": "bytes32"
                }
            ],
            "name": "RoleAdminChanged",
            "type": "event"
        },
        {
            "anonymous": false,
            "inputs": [
                {
                    "indexed": true,
                    "internalType": "bytes32",
                    "name": "role",
                    "type": "bytes32"
                },
                {
                    "indexed": true,
                    "internalType": "address",
                    "name": "account",
                    "type": "address"
                },
                {
                    "indexed": true,
                    "internalType": "address",
                    "name": "sender",
                    "type": "address"
                }
            ],
            "name": "RoleGranted",
            "type": "event"
        },
        {
            "anonymous": false,
            "inputs": [
                {
                    "indexed": true,
                    "internalType": "bytes32",
                    "name": "role",
                    "type": "bytes32"
                },
                {
                    "indexed": true,
                    "internalType": "address",
                    "name": "account",
                    "type": "address"
                },
                {
                    "indexed": true,
                    "internalType": "address",
                    "name": "sender",
                    "type": "address"
                }
            ],
            "name": "RoleRevoked",
            "type": "event"
        },
        {
            "anonymous": false,
            "inputs": [
                {
                    "indexed": true,
                    "internalType": "address",
                    "name": "from",
                    "type": "address"
                },
                {
                    "indexed": true,
                    "internalType": "address",
                    "name": "to",
                    "type": "address"
                },
                {
                    "indexed": true,
                    "internalType": "uint256",
                    "name": "tokenId",
                    "type": "uint256"
                }
            ],
            "name": "Transfer",
            "type": "event"
        },
        {
            "inputs": [],
            "name": "DEFAULT_ADMIN_ROLE",
            "outputs": [
                {
                    "internalType": "bytes32",
                    "name": "",
                    "type": "bytes32"
                }
            ],
            "stateMutability": "view",
            "type": "function"
        },
        {
            "inputs": [],
            "name": "MINTER_ROLE",
            "outputs": [
                {
                    "internalType": "bytes32",
                    "name": "",
                    "type": "bytes32"
                }
            ],
            "stateMutability": "view",
            "type": "function"
        },
        {
            "inputs": [
                {
                    "internalType": "address",
                    "name": "to",
                    "type": "address"
                },
                {
                    "internalType": "uint256",
                    "name": "tokenId",
                    "type": "uint256"
                }
            ],
            "name": "approve",
            "outputs": [],
            "stateMutability": "nonpayable",
            "type": "function"
        },
        {
            "inputs": [
                {
                    "internalType": "address",
                    "name": "owner",
                    "type": "address"
                }
            ],
            "name": "balanceOf",
            "outputs": [
                {
                    "internalType": "uint256",
                    "name": "",
                    "type": "uint256"
                }
            ],
            "stateMutability": "view",
            "type": "function"
        },
        {
            "inputs": [
                {
                    "internalType": "uint256",
                    "name": "tokenId",
                    "type": "uint256"
                }
            ],
            "name": "getApproved",
            "outputs": [
                {
                    "internalType": "address",
                    "name": "",
                    "type": "address"
                }
            ],
            "stateMutability": "view",
            "type": "function"
        },
        {
            "inputs": [],
            "name": "getInitialized",
            "outputs": [
                {
                    "internalType": "bool",
                    "name": "",
                    "type": "bool"
                }
            ],
            "stateMutability": "view",
            "type": "function"
        },
        {
            "inputs": [
                {
                    "internalType": "uint256",
                    "name": "index",
                    "type": "uint256"
                }
            ],
            "name": "getNftUris",
            "outputs": [
                {
                    "internalType": "string",
                    "name": "",
                    "type": "string"
                }
            ],
            "stateMutability": "view",
            "type": "function"
        },
        {
            "inputs": [
                {
                    "internalType": "bytes32",
                    "name": "role",
                    "type": "bytes32"
                }
            ],
            "name": "getRoleAdmin",
            "outputs": [
                {
                    "internalType": "bytes32",
                    "name": "",
                    "type": "bytes32"
                }
            ],
            "stateMutability": "view",
            "type": "function"
        },
        {
            "inputs": [],
            "name": "getTokenCounter",
            "outputs": [
                {
                    "internalType": "uint256",
                    "name": "",
                    "type": "uint256"
                }
            ],
            "stateMutability": "view",
            "type": "function"
        },
        {
            "inputs": [
                {
                    "internalType": "bytes32",
                    "name": "role",
                    "type": "bytes32"
                },
                {
                    "internalType": "address",
                    "name": "account",
                    "type": "address"
                }
            ],
            "name": "grantRole",
            "outputs": [],
            "stateMutability": "nonpayable",
            "type": "function"
        },
        {
            "inputs": [
                {
                    "internalType": "bytes32",
                    "name": "role",
                    "type": "bytes32"
                },
                {
                    "internalType": "address",
                    "name": "account",
                    "type": "address"
                }
            ],
            "name": "hasRole",
            "outputs": [
                {
                    "internalType": "bool",
                    "name": "",
                    "type": "bool"
                }
            ],
            "stateMutability": "view",
            "type": "function"
        },
        {
            "inputs": [
                {
                    "internalType": "address",
                    "name": "owner",
                    "type": "address"
                },
                {
                    "internalType": "address",
                    "name": "operator",
                    "type": "address"
                }
            ],
            "name": "isApprovedForAll",
            "outputs": [
                {
                    "internalType": "bool",
                    "name": "",
                    "type": "bool"
                }
            ],
            "stateMutability": "view",
            "type": "function"
        },
        {
            "inputs": [],
            "name": "name",
            "outputs": [
                {
                    "internalType": "string",
                    "name": "",
                    "type": "string"
                }
            ],
            "stateMutability": "view",
            "type": "function"
        },
        {
            "inputs": [
                {
                    "internalType": "uint256",
                    "name": "tokenId",
                    "type": "uint256"
                }
            ],
            "name": "ownerOf",
            "outputs": [
                {
                    "internalType": "address",
                    "name": "",
                    "type": "address"
                }
            ],
            "stateMutability": "view",
            "type": "function"
        },
        {
            "inputs": [
                {
                    "internalType": "uint256",
                    "name": "requestId",
                    "type": "uint256"
                },
                {
                    "internalType": "uint256[]",
                    "name": "randomWords",
                    "type": "uint256[]"
                }
            ],
            "name": "rawFulfillRandomWords",
            "outputs": [],
            "stateMutability": "nonpayable",
            "type": "function"
        },
        {
            "inputs": [
                {
                    "internalType": "bytes32",
                    "name": "role",
                    "type": "bytes32"
                },
                {
                    "internalType": "address",
                    "name": "account",
                    "type": "address"
                }
            ],
            "name": "renounceRole",
            "outputs": [],
            "stateMutability": "nonpayable",
            "type": "function"
        },
        {
            "inputs": [
                {
                    "internalType": "address",
                    "name": "sender",
                    "type": "address"
                }
            ],
            "name": "requestNft",
            "outputs": [
                {
                    "internalType": "uint256",
                    "name": "requestId",
                    "type": "uint256"
                }
            ],
            "stateMutability": "nonpayable",
            "type": "function"
        },
        {
            "inputs": [
                {
                    "internalType": "bytes32",
                    "name": "role",
                    "type": "bytes32"
                },
                {
                    "internalType": "address",
                    "name": "account",
                    "type": "address"
                }
            ],
            "name": "revokeRole",
            "outputs": [],
            "stateMutability": "nonpayable",
            "type": "function"
        },
        {
            "inputs": [
                {
                    "internalType": "address",
                    "name": "from",
                    "type": "address"
                },
                {
                    "internalType": "address",
                    "name": "to",
                    "type": "address"
                },
                {
                    "internalType": "uint256",
                    "name": "tokenId",
                    "type": "uint256"
                }
            ],
            "name": "safeTransferFrom",
            "outputs": [],
            "stateMutability": "nonpayable",
            "type": "function"
        },
        {
            "inputs": [
                {
                    "internalType": "address",
                    "name": "from",
                    "type": "address"
                },
                {
                    "internalType": "address",
                    "name": "to",
                    "type": "address"
                },
                {
                    "internalType": "uint256",
                    "name": "tokenId",
                    "type": "uint256"
                },
                {
                    "internalType": "bytes",
                    "name": "data",
                    "type": "bytes"
                }
            ],
            "name": "safeTransferFrom",
            "outputs": [],
            "stateMutability": "nonpayable",
            "type": "function"
        },
        {
            "inputs": [
                {
                    "internalType": "address",
                    "name": "operator",
                    "type": "address"
                },
                {
                    "internalType": "bool",
                    "name": "approved",
                    "type": "bool"
                }
            ],
            "name": "setApprovalForAll",
            "outputs": [],
            "stateMutability": "nonpayable",
            "type": "function"
        },
        {
            "inputs": [
                {
                    "internalType": "bytes4",
                    "name": "interfaceId",
                    "type": "bytes4"
                }
            ],
            "name": "supportsInterface",
            "outputs": [
                {
                    "internalType": "bool",
                    "name": "",
                    "type": "bool"
                }
            ],
            "stateMutability": "view",
            "type": "function"
        },
        {
            "inputs": [],
            "name": "symbol",
            "outputs": [
                {
                    "internalType": "string",
                    "name": "",
                    "type": "string"
                }
            ],
            "stateMutability": "view",
            "type": "function"
        },
        {
            "inputs": [
                {
                    "internalType": "uint256",
                    "name": "tokenId",
                    "type": "uint256"
                }
            ],
            "name": "tokenURI",
            "outputs": [
                {
                    "internalType": "string",
                    "name": "",
                    "type": "string"
                }
            ],
            "stateMutability": "view",
            "type": "function"
        },
        {
            "inputs": [
                {
                    "internalType": "address",
                    "name": "from",
                    "type": "address"
                },
                {
                    "internalType": "address",
                    "name": "to",
                    "type": "address"
                },
                {
                    "internalType": "uint256",
                    "name": "tokenId",
                    "type": "uint256"
                }
            ],
            "name": "transferFrom",
            "outputs": [],
            "stateMutability": "nonpayable",
            "type": "function"
        }
    ],
    "bytecode": "0x6101206040526040518060a00160405280600560ff168152602001600460ff168152602001600360ff168152602001600260ff168152602001600160ff1681525060099060056200005292919062000405565b503480156200006057600080fd5b5060405162004ca538038062004ca58339818101604052810190620000869190620008df565b6040518060400160405280601381526020017f47726f757046697665436f6c6c656374696f6e000000000000000000000000008152506040518060400160405280600381526020017f4746430000000000000000000000000000000000000000000000000000000000815250868073ffffffffffffffffffffffffffffffffffffffff1660808173ffffffffffffffffffffffffffffffffffffffff168152505050816000908162000139919062000bd1565b5080600190816200014b919062000bd1565b5050508473ffffffffffffffffffffffffffffffffffffffff1660a08173ffffffffffffffffffffffffffffffffffffffff16815250508367ffffffffffffffff1660c08167ffffffffffffffff16815250508260e081815250508163ffffffff166101008163ffffffff1681525050620001cc816200022660201b60201c565b6000600e81905550620001e96000801b33620002a060201b60201c565b6200021b7f9f2df0fed2c77648de5860a4cc508cd0818c85b8b8a1ab4ceeef8d981c8956a633620002a060201b60201c565b505050505062000cb8565b601060009054906101000a900460ff16156200026e576040517fdf8140d500000000000000000000000000000000000000000000000000000000815260040160405180910390fd5b80600f906005620002819291906200044f565b506001601060006101000a81548160ff02191690831515021790555050565b620002b282826200039260201b60201c565b6200038e5760016007600084815260200190815260200160002060000160008373ffffffffffffffffffffffffffffffffffffffff1673ffffffffffffffffffffffffffffffffffffffff16815260200190815260200160002060006101000a81548160ff02191690831515021790555062000333620003fd60201b60201c565b73ffffffffffffffffffffffffffffffffffffffff168173ffffffffffffffffffffffffffffffffffffffff16837f2f8788117e7eff1d82e926ec794901d17c78024a50270940304540a733656f0d60405160405180910390a45b5050565b60006007600084815260200190815260200160002060000160008373ffffffffffffffffffffffffffffffffffffffff1673ffffffffffffffffffffffffffffffffffffffff16815260200190815260200160002060009054906101000a900460ff16905092915050565b600033905090565b82600581019282156200043c579160200282015b828111156200043b578251829060ff1690559160200191906001019062000419565b5b5090506200044b9190620004af565b5090565b8280548282559060005260206000209081019282156200049c579160200282015b828111156200049b5782518290816200048a919062000bd1565b509160200191906001019062000470565b5b509050620004ab9190620004ce565b5090565b5b80821115620004ca576000816000905550600101620004b0565b5090565b5b80821115620004f25760008181620004e89190620004f6565b50600101620004cf565b5090565b5080546200050490620009c0565b6000825580601f1062000518575062000539565b601f016020900490600052602060002090810190620005389190620004af565b5b50565b6000604051905090565b600080fd5b600080fd5b600073ffffffffffffffffffffffffffffffffffffffff82169050919050565b60006200057d8262000550565b9050919050565b6200058f8162000570565b81146200059b57600080fd5b50565b600081519050620005af8162000584565b92915050565b600067ffffffffffffffff82169050919050565b620005d481620005b5565b8114620005e057600080fd5b50565b600081519050620005f481620005c9565b92915050565b6000819050919050565b6200060f81620005fa565b81146200061b57600080fd5b50565b6000815190506200062f8162000604565b92915050565b600063ffffffff82169050919050565b620006508162000635565b81146200065c57600080fd5b50565b600081519050620006708162000645565b92915050565b600080fd5b6000601f19601f8301169050919050565b7f4e487b7100000000000000000000000000000000000000000000000000000000600052604160045260246000fd5b620006c6826200067b565b810181811067ffffffffffffffff82111715620006e857620006e76200068c565b5b80604052505050565b6000620006fd6200053c565b90506200070b8282620006bb565b919050565b600067ffffffffffffffff8211156200072e576200072d6200068c565b5b602082029050919050565b600080fd5b600080fd5b600067ffffffffffffffff8211156200076157620007606200068c565b5b6200076c826200067b565b9050602081019050919050565b60005b83811015620007995780820151818401526020810190506200077c565b60008484015250505050565b6000620007bc620007b68462000743565b620006f1565b905082815260208101848484011115620007db57620007da6200073e565b5b620007e884828562000779565b509392505050565b600082601f83011262000808576200080762000676565b5b81516200081a848260208601620007a5565b91505092915050565b60006200083a620008348462000710565b620006f1565b9050806020840283018581111562000857576200085662000739565b5b835b81811015620008a557805167ffffffffffffffff81111562000880576200087f62000676565b5b8086016200088f8982620007f0565b8552602085019450505060208101905062000859565b5050509392505050565b600082601f830112620008c757620008c662000676565b5b6005620008d684828562000823565b91505092915050565b600080600080600060a08688031215620008fe57620008fd62000546565b5b60006200090e888289016200059e565b95505060206200092188828901620005e3565b945050604062000934888289016200061e565b935050606062000947888289016200065f565b925050608086015167ffffffffffffffff8111156200096b576200096a6200054b565b5b6200097988828901620008af565b9150509295509295909350565b600081519050919050565b7f4e487b7100000000000000000000000000000000000000000000000000000000600052602260045260246000fd5b60006002820490506001821680620009d957607f821691505b602082108103620009ef57620009ee62000991565b5b50919050565b60008190508160005260206000209050919050565b60006020601f8301049050919050565b600082821b905092915050565b60006008830262000a597fffffffffffffffffffffffffffffffffffffffffffffffffffffffffffffffff8262000a1a565b62000a65868362000a1a565b95508019841693508086168417925050509392505050565b6000819050919050565b6000819050919050565b600062000ab262000aac62000aa68462000a7d565b62000a87565b62000a7d565b9050919050565b6000819050919050565b62000ace8362000a91565b62000ae662000add8262000ab9565b84845462000a27565b825550505050565b600090565b62000afd62000aee565b62000b0a81848462000ac3565b505050565b5b8181101562000b325762000b2660008262000af3565b60018101905062000b10565b5050565b601f82111562000b815762000b4b81620009f5565b62000b568462000a0a565b8101602085101562000b66578190505b62000b7e62000b758562000a0a565b83018262000b0f565b50505b505050565b600082821c905092915050565b600062000ba66000198460080262000b86565b1980831691505092915050565b600062000bc1838362000b93565b9150826002028217905092915050565b62000bdc8262000986565b67ffffffffffffffff81111562000bf85762000bf76200068c565b5b62000c048254620009c0565b62000c1182828562000b36565b600060209050601f83116001811462000c49576000841562000c34578287015190505b62000c40858262000bb3565b86555062000cb0565b601f19841662000c5986620009f5565b60005b8281101562000c835784890151825560018201915060208501945060208101905062000c5c565b8683101562000ca3578489015162000c9f601f89168262000b93565b8355505b6001600288020188555050505b505050505050565b60805160a05160c05160e05161010051613fa162000d046000396000610c7e01526000610c3a01526000610c5b01526000610bfe01526000818161070b015261075f0152613fa16000f3fe608060405234801561001057600080fd5b50600436106101735760003560e01c806370a08231116100de578063c75ee78411610097578063d547741f11610071578063d547741f1461046e578063dd28e29e1461048a578063e985e9c5146104ba578063ee89dab4146104ea57610173565b8063c75ee784146103f0578063c87b56dd14610420578063d53913931461045057610173565b806370a082311461031c57806391d148541461034c57806395d89b411461037c578063a217fddf1461039a578063a22cb465146103b8578063b88d4fde146103d457610173565b8063248a9ca311610130578063248a9ca31461024a5780632f2ff15d1461027a57806336568abe1461029657806342842e0e146102b25780636352211e146102ce5780636e02007d146102fe57610173565b806301ffc9a71461017857806306fdde03146101a8578063081812fc146101c6578063095ea7b3146101f65780631fe543e31461021257806323b872dd1461022e575b600080fd5b610192600480360381019061018d91906128ce565b610508565b60405161019f9190612916565b60405180910390f35b6101b061051a565b6040516101bd91906129c1565b60405180910390f35b6101e060048036038101906101db9190612a19565b6105ac565b6040516101ed9190612a87565b60405180910390f35b610210600480360381019061020b9190612ace565b6105f2565b005b61022c60048036038101906102279190612c56565b610709565b005b61024860048036038101906102439190612cb2565b6107c9565b005b610264600480360381019061025f9190612d3b565b610829565b6040516102719190612d77565b60405180910390f35b610294600480360381019061028f9190612d92565b610849565b005b6102b060048036038101906102ab9190612d92565b61086a565b005b6102cc60048036038101906102c79190612cb2565b6108ed565b005b6102e860048036038101906102e39190612a19565b61090d565b6040516102f59190612a87565b60405180910390f35b610306610993565b6040516103139190612de1565b60405180910390f35b61033660048036038101906103319190612dfc565b61099d565b6040516103439190612de1565b60405180910390f35b61036660048036038101906103619190612d92565b610a54565b6040516103739190612916565b60405180910390f35b610384610abf565b60405161039191906129c1565b60405180910390f35b6103a2610b51565b6040516103af9190612d77565b60405180910390f35b6103d260048036038101906103cd9190612e55565b610b58565b005b6103ee60048036038101906103e99190612f4a565b610b6e565b005b61040a60048036038101906104059190612dfc565b610bd0565b6040516104179190612de1565b60405180910390f35b61043a60048036038101906104359190612a19565b610d94565b60405161044791906129c1565b60405180910390f35b610458610ea6565b6040516104659190612d77565b60405180910390f35b61048860048036038101906104839190612d92565b610eca565b005b6104a4600480360381019061049f9190612a19565b610eeb565b6040516104b191906129c1565b60405180910390f35b6104d460048036038101906104cf9190612fcd565b610f9b565b6040516104e19190612916565b60405180910390f35b6104f261102f565b6040516104ff9190612916565b60405180910390f35b600061051382611046565b9050919050565b6060600080546105299061303c565b80601f01602080910402602001604051908101604052809291908181526020018280546105559061303c565b80156105a25780601f10610577576101008083540402835291602001916105a2565b820191906000526020600020905b81548152906001019060200180831161058557829003601f168201915b5050505050905090565b60006105b7826110c0565b6004600083815260200190815260200160002060009054906101000a900473ffffffffffffffffffffffffffffffffffffffff169050919050565b60006105fd8261090d565b90508073ffffffffffffffffffffffffffffffffffffffff168373ffffffffffffffffffffffffffffffffffffffff160361066d576040517f08c379a0000000000000000000000000000000000000000000000000000000008152600401610664906130df565b60405180910390fd5b8073ffffffffffffffffffffffffffffffffffffffff1661068c61110b565b73ffffffffffffffffffffffffffffffffffffffff1614806106bb57506106ba816106b561110b565b610f9b565b5b6106fa576040517f08c379a00000000000000000000000000000000000000000000000000000000081526004016106f190613171565b60405180910390fd5b6107048383611113565b505050565b7f000000000000000000000000000000000000000000000000000000000000000073ffffffffffffffffffffffffffffffffffffffff163373ffffffffffffffffffffffffffffffffffffffff16146107bb57337f00000000000000000000000000000000000000000000000000000000000000006040517f1cf993f40000000000000000000000000000000000000000000000000000000081526004016107b2929190613191565b60405180910390fd5b6107c582826111cc565b5050565b6107da6107d461110b565b82611362565b610819576040517f08c379a00000000000000000000000000000000000000000000000000000000081526004016108109061322c565b60405180910390fd5b6108248383836113f7565b505050565b600060076000838152602001908152602001600020600101549050919050565b61085282610829565b61085b816116f0565b6108658383611704565b505050565b61087261110b565b73ffffffffffffffffffffffffffffffffffffffff168173ffffffffffffffffffffffffffffffffffffffff16146108df576040517f08c379a00000000000000000000000000000000000000000000000000000000081526004016108d6906132be565b60405180910390fd5b6108e982826117e5565b5050565b61090883838360405180602001604052806000815250610b6e565b505050565b600080610919836118c7565b9050600073ffffffffffffffffffffffffffffffffffffffff168173ffffffffffffffffffffffffffffffffffffffff160361098a576040517f08c379a00000000000000000000000000000000000000000000000000000000081526004016109819061332a565b60405180910390fd5b80915050919050565b6000600e54905090565b60008073ffffffffffffffffffffffffffffffffffffffff168273ffffffffffffffffffffffffffffffffffffffff1603610a0d576040517f08c379a0000000000000000000000000000000000000000000000000000000008152600401610a04906133bc565b60405180910390fd5b600360008373ffffffffffffffffffffffffffffffffffffffff1673ffffffffffffffffffffffffffffffffffffffff168152602001908152602001600020549050919050565b60006007600084815260200190815260200160002060000160008373ffffffffffffffffffffffffffffffffffffffff1673ffffffffffffffffffffffffffffffffffffffff16815260200190815260200160002060009054906101000a900460ff16905092915050565b606060018054610ace9061303c565b80601f0160208091040260200160405190810160405280929190818152602001828054610afa9061303c565b8015610b475780601f10610b1c57610100808354040283529160200191610b47565b820191906000526020600020905b815481529060010190602001808311610b2a57829003601f168201915b5050505050905090565b6000801b81565b610b6a610b6361110b565b8383611904565b5050565b610b7f610b7961110b565b83611362565b610bbe576040517f08c379a0000000000000000000000000000000000000000000000000000000008152600401610bb59061322c565b60405180910390fd5b610bca84848484611a70565b50505050565b60007f9f2df0fed2c77648de5860a4cc508cd0818c85b8b8a1ab4ceeef8d981c8956a6610bfc816116f0565b7f000000000000000000000000000000000000000000000000000000000000000073ffffffffffffffffffffffffffffffffffffffff16635d3b1d307f00000000000000000000000000000000000000000000000000000000000000007f000000000000000000000000000000000000000000000000000000000000000060037f000000000000000000000000000000000000000000000000000000000000000060016040518663ffffffff1660e01b8152600401610cbf95949392919061343b565b6020604051808303816000875af1158015610cde573d6000803e3d6000fd5b505050506040513d601f19601f82011682018060405250810190610d0291906134a3565b9150826008600084815260200190815260200160002060006101000a81548173ffffffffffffffffffffffffffffffffffffffff021916908373ffffffffffffffffffffffffffffffffffffffff160217905550817ff873236e6cc0ecc5be1a9a35c95ee5b8d1ac4cc7bfef0cc5060391d6cc98e26b84604051610d869190612a87565b60405180910390a250919050565b6060610d9f826110c0565b6000600660008481526020019081526020016000208054610dbf9061303c565b80601f0160208091040260200160405190810160405280929190818152602001828054610deb9061303c565b8015610e385780601f10610e0d57610100808354040283529160200191610e38565b820191906000526020600020905b815481529060010190602001808311610e1b57829003601f168201915b505050505090506000610e49611acc565b90506000815103610e5e578192505050610ea1565b600082511115610e93578082604051602001610e7b92919061350c565b60405160208183030381529060405292505050610ea1565b610e9c84611ae3565b925050505b919050565b7f9f2df0fed2c77648de5860a4cc508cd0818c85b8b8a1ab4ceeef8d981c8956a681565b610ed382610829565b610edc816116f0565b610ee683836117e5565b505050565b6060600f8281548110610f0157610f00613530565b5b906000526020600020018054610f169061303c565b80601f0160208091040260200160405190810160405280929190818152602001828054610f429061303c565b8015610f8f5780601f10610f6457610100808354040283529160200191610f8f565b820191906000526020600020905b815481529060010190602001808311610f7257829003601f168201915b50505050509050919050565b6000600560008473ffffffffffffffffffffffffffffffffffffffff1673ffffffffffffffffffffffffffffffffffffffff16815260200190815260200160002060008373ffffffffffffffffffffffffffffffffffffffff1673ffffffffffffffffffffffffffffffffffffffff16815260200190815260200160002060009054906101000a900460ff16905092915050565b6000601060009054906101000a900460ff16905090565b60007f7965db0b000000000000000000000000000000000000000000000000000000007bffffffffffffffffffffffffffffffffffffffffffffffffffffffff1916827bffffffffffffffffffffffffffffffffffffffffffffffffffffffff191614806110b957506110b882611b4b565b5b9050919050565b6110c981611bac565b611108576040517f08c379a00000000000000000000000000000000000000000000000000000000081526004016110ff9061332a565b60405180910390fd5b50565b600033905090565b816004600083815260200190815260200160002060006101000a81548173ffffffffffffffffffffffffffffffffffffffff021916908373ffffffffffffffffffffffffffffffffffffffff160217905550808273ffffffffffffffffffffffffffffffffffffffff166111868361090d565b73ffffffffffffffffffffffffffffffffffffffff167f8c5be1e5ebec7d5bd14f71427d1e84f3dd0314c0f7b2291e5b200ac8c7c3b92560405160405180910390a45050565b60006008600084815260200190815260200160002060009054906101000a900473ffffffffffffffffffffffffffffffffffffffff1690506000600e5490506001600e5461121a919061358e565b600e81905550600060648460008151811061123857611237613530565b5b602002602001015161124a91906135f1565b9050600061125782611bed565b90506112638484611cbc565b61131f83600f6001846112769190613622565b8154811061128757611286613530565b5b90600052602060002001805461129c9061303c565b80601f01602080910402602001604051908101604052809291908181526020018280546112c89061303c565b80156113155780601f106112ea57610100808354040283529160200191611315565b820191906000526020600020905b8154815290600101906020018083116112f857829003601f168201915b5050505050611cda565b7f6544c14d598d074251c01174f3a1a594ceea65f5760fffdf17e4410d381a9b8981858560405161135293929190613656565b60405180910390a1505050505050565b60008061136e8361090d565b90508073ffffffffffffffffffffffffffffffffffffffff168473ffffffffffffffffffffffffffffffffffffffff1614806113b057506113af8185610f9b565b5b806113ee57508373ffffffffffffffffffffffffffffffffffffffff166113d6846105ac565b73ffffffffffffffffffffffffffffffffffffffff16145b91505092915050565b8273ffffffffffffffffffffffffffffffffffffffff166114178261090d565b73ffffffffffffffffffffffffffffffffffffffff161461146d576040517f08c379a0000000000000000000000000000000000000000000000000000000008152600401611464906136ff565b60405180910390fd5b600073ffffffffffffffffffffffffffffffffffffffff168273ffffffffffffffffffffffffffffffffffffffff16036114dc576040517f08c379a00000000000000000000000000000000000000000000000000000000081526004016114d390613791565b60405180910390fd5b6114e98383836001611d7e565b8273ffffffffffffffffffffffffffffffffffffffff166115098261090d565b73ffffffffffffffffffffffffffffffffffffffff161461155f576040517f08c379a0000000000000000000000000000000000000000000000000000000008152600401611556906136ff565b60405180910390fd5b6004600082815260200190815260200160002060006101000a81549073ffffffffffffffffffffffffffffffffffffffff02191690556001600360008573ffffffffffffffffffffffffffffffffffffffff1673ffffffffffffffffffffffffffffffffffffffff168152602001908152602001600020600082825403925050819055506001600360008473ffffffffffffffffffffffffffffffffffffffff1673ffffffffffffffffffffffffffffffffffffffff16815260200190815260200160002060008282540192505081905550816002600083815260200190815260200160002060006101000a81548173ffffffffffffffffffffffffffffffffffffffff021916908373ffffffffffffffffffffffffffffffffffffffff160217905550808273ffffffffffffffffffffffffffffffffffffffff168473ffffffffffffffffffffffffffffffffffffffff167fddf252ad1be2c89b69c2b068fc378daa952ba7f163c4a11628f55a4df523b3ef60405160405180910390a46116eb8383836001611d84565b505050565b611701816116fc61110b565b611d8a565b50565b61170e8282610a54565b6117e15760016007600084815260200190815260200160002060000160008373ffffffffffffffffffffffffffffffffffffffff1673ffffffffffffffffffffffffffffffffffffffff16815260200190815260200160002060006101000a81548160ff02191690831515021790555061178661110b565b73ffffffffffffffffffffffffffffffffffffffff168173ffffffffffffffffffffffffffffffffffffffff16837f2f8788117e7eff1d82e926ec794901d17c78024a50270940304540a733656f0d60405160405180910390a45b5050565b6117ef8282610a54565b156118c35760006007600084815260200190815260200160002060000160008373ffffffffffffffffffffffffffffffffffffffff1673ffffffffffffffffffffffffffffffffffffffff16815260200190815260200160002060006101000a81548160ff02191690831515021790555061186861110b565b73ffffffffffffffffffffffffffffffffffffffff168173ffffffffffffffffffffffffffffffffffffffff16837ff6391f5c32d9c69d2a47ea670b442974b53935d1edc7fd64eb21e047a839171b60405160405180910390a45b5050565b60006002600083815260200190815260200160002060009054906101000a900473ffffffffffffffffffffffffffffffffffffffff169050919050565b8173ffffffffffffffffffffffffffffffffffffffff168373ffffffffffffffffffffffffffffffffffffffff1603611972576040517f08c379a0000000000000000000000000000000000000000000000000000000008152600401611969906137fd565b60405180910390fd5b80600560008573ffffffffffffffffffffffffffffffffffffffff1673ffffffffffffffffffffffffffffffffffffffff16815260200190815260200160002060008473ffffffffffffffffffffffffffffffffffffffff1673ffffffffffffffffffffffffffffffffffffffff16815260200190815260200160002060006101000a81548160ff0219169083151502179055508173ffffffffffffffffffffffffffffffffffffffff168373ffffffffffffffffffffffffffffffffffffffff167f17307eab39ab6107e8899845ad3d59bd9653f200f220920489ca2b5937696c3183604051611a639190612916565b60405180910390a3505050565b611a7b8484846113f7565b611a8784848484611e0f565b611ac6576040517f08c379a0000000000000000000000000000000000000000000000000000000008152600401611abd9061388f565b60405180910390fd5b50505050565b606060405180602001604052806000815250905090565b6060611aee826110c0565b6000611af8611acc565b90506000815111611b185760405180602001604052806000815250611b43565b80611b2284611f96565b604051602001611b3392919061350c565b6040516020818303038152906040525b915050919050565b6000634906490660e01b7bffffffffffffffffffffffffffffffffffffffffffffffffffffffff1916827bffffffffffffffffffffffffffffffffffffffffffffffffffffffff19161480611ba55750611ba482612064565b5b9050919050565b60008073ffffffffffffffffffffffffffffffffffffffff16611bce836118c7565b73ffffffffffffffffffffffffffffffffffffffff1614159050919050565b600080600090506000611bfe612146565b905060005b6005811015611c8457828510158015611c325750818160058110611c2a57611c29613530565b5b602002015185105b15611c575760098160058110611c4b57611c4a613530565b5b01549350505050611cb7565b818160058110611c6a57611c69613530565b5b602002015192508080611c7c906138af565b915050611c03565b506040517f91d6954c00000000000000000000000000000000000000000000000000000000815260040160405180910390fd5b919050565b611cd682826040518060200160405280600081525061217f565b5050565b611ce382611bac565b611d22576040517f08c379a0000000000000000000000000000000000000000000000000000000008152600401611d1990613969565b60405180910390fd5b80600660008481526020019081526020016000209081611d429190613b35565b507ff8e1a15aba9398e019f0b49df1a4fde98ee17ae345cb5f6b5e2c27f5033e8ce782604051611d729190612de1565b60405180910390a15050565b50505050565b50505050565b611d948282610a54565b611e0b57611da1816121da565b611daf8360001c6020612207565b604051602001611dc0929190613c9f565b6040516020818303038152906040526040517f08c379a0000000000000000000000000000000000000000000000000000000008152600401611e0291906129c1565b60405180910390fd5b5050565b6000611e308473ffffffffffffffffffffffffffffffffffffffff16612443565b15611f89578373ffffffffffffffffffffffffffffffffffffffff1663150b7a02611e5961110b565b8786866040518563ffffffff1660e01b8152600401611e7b9493929190613d2e565b6020604051808303816000875af1925050508015611eb757506040513d601f19601f82011682018060405250810190611eb49190613d8f565b60015b611f39573d8060008114611ee7576040519150601f19603f3d011682016040523d82523d6000602084013e611eec565b606091505b506000815103611f31576040517f08c379a0000000000000000000000000000000000000000000000000000000008152600401611f289061388f565b60405180910390fd5b805181602001fd5b63150b7a0260e01b7bffffffffffffffffffffffffffffffffffffffffffffffffffffffff1916817bffffffffffffffffffffffffffffffffffffffffffffffffffffffff191614915050611f8e565b600190505b949350505050565b606060006001611fa584612466565b01905060008167ffffffffffffffff811115611fc457611fc3612b13565b5b6040519080825280601f01601f191660200182016040528015611ff65781602001600182028036833780820191505090505b509050600082602001820190505b600115612059578080600190039150507f3031323334353637383961626364656600000000000000000000000000000000600a86061a8153600a858161204d5761204c6135c2565b5b04945060008503612004575b819350505050919050565b60007f80ac58cd000000000000000000000000000000000000000000000000000000007bffffffffffffffffffffffffffffffffffffffffffffffffffffffff1916827bffffffffffffffffffffffffffffffffffffffffffffffffffffffff1916148061212f57507f5b5e139f000000000000000000000000000000000000000000000000000000007bffffffffffffffffffffffffffffffffffffffffffffffffffffffff1916827bffffffffffffffffffffffffffffffffffffffffffffffffffffffff1916145b8061213f575061213e826125b9565b5b9050919050565b61214e612840565b6040518060a0016040528060058152602001600f8152602001601e8152602001603281526020016064815250905090565b6121898383612623565b6121966000848484611e0f565b6121d5576040517f08c379a00000000000000000000000000000000000000000000000000000000081526004016121cc9061388f565b60405180910390fd5b505050565b60606122008273ffffffffffffffffffffffffffffffffffffffff16601460ff16612207565b9050919050565b60606000600283600261221a9190613dbc565b612224919061358e565b67ffffffffffffffff81111561223d5761223c612b13565b5b6040519080825280601f01601f19166020018201604052801561226f5781602001600182028036833780820191505090505b5090507f3000000000000000000000000000000000000000000000000000000000000000816000815181106122a7576122a6613530565b5b60200101907effffffffffffffffffffffffffffffffffffffffffffffffffffffffffffff1916908160001a9053507f78000000000000000000000000000000000000000000000000000000000000008160018151811061230b5761230a613530565b5b60200101907effffffffffffffffffffffffffffffffffffffffffffffffffffffffffffff1916908160001a9053506000600184600261234b9190613dbc565b612355919061358e565b90505b60018111156123f5577f3031323334353637383961626364656600000000000000000000000000000000600f86166010811061239757612396613530565b5b1a60f81b8282815181106123ae576123ad613530565b5b60200101907effffffffffffffffffffffffffffffffffffffffffffffffffffffffffffff1916908160001a905350600485901c9450806123ee90613dfe565b9050612358565b5060008414612439576040517f08c379a000000000000000000000000000000000000000000000000000000000815260040161243090613e73565b60405180910390fd5b8091505092915050565b6000808273ffffffffffffffffffffffffffffffffffffffff163b119050919050565b600080600090507a184f03e93ff9f4daa797ed6e38ed64bf6a1f01000000000000000083106124c4577a184f03e93ff9f4daa797ed6e38ed64bf6a1f01000000000000000083816124ba576124b96135c2565b5b0492506040810190505b6d04ee2d6d415b85acef81000000008310612501576d04ee2d6d415b85acef810000000083816124f7576124f66135c2565b5b0492506020810190505b662386f26fc10000831061253057662386f26fc100008381612526576125256135c2565b5b0492506010810190505b6305f5e1008310612559576305f5e100838161254f5761254e6135c2565b5b0492506008810190505b612710831061257e576127108381612574576125736135c2565b5b0492506004810190505b606483106125a15760648381612597576125966135c2565b5b0492506002810190505b600a83106125b0576001810190505b80915050919050565b60007f01ffc9a7000000000000000000000000000000000000000000000000000000007bffffffffffffffffffffffffffffffffffffffffffffffffffffffff1916827bffffffffffffffffffffffffffffffffffffffffffffffffffffffff1916149050919050565b600073ffffffffffffffffffffffffffffffffffffffff168273ffffffffffffffffffffffffffffffffffffffff1603612692576040517f08c379a000000000000000000000000000000000000000000000000000000000815260040161268990613edf565b60405180910390fd5b61269b81611bac565b156126db576040517f08c379a00000000000000000000000000000000000000000000000000000000081526004016126d290613f4b565b60405180910390fd5b6126e9600083836001611d7e565b6126f281611bac565b15612732576040517f08c379a000000000000000000000000000000000000000000000000000000000815260040161272990613f4b565b60405180910390fd5b6001600360008473ffffffffffffffffffffffffffffffffffffffff1673ffffffffffffffffffffffffffffffffffffffff16815260200190815260200160002060008282540192505081905550816002600083815260200190815260200160002060006101000a81548173ffffffffffffffffffffffffffffffffffffffff021916908373ffffffffffffffffffffffffffffffffffffffff160217905550808273ffffffffffffffffffffffffffffffffffffffff16600073ffffffffffffffffffffffffffffffffffffffff167fddf252ad1be2c89b69c2b068fc378daa952ba7f163c4a11628f55a4df523b3ef60405160405180910390a461283c600083836001611d84565b5050565b6040518060a00160405280600590602082028036833780820191505090505090565b6000604051905090565b600080fd5b600080fd5b60007fffffffff0000000000000000000000000000000000000000000000000000000082169050919050565b6128ab81612876565b81146128b657600080fd5b50565b6000813590506128c8816128a2565b92915050565b6000602082840312156128e4576128e361286c565b5b60006128f2848285016128b9565b91505092915050565b60008115159050919050565b612910816128fb565b82525050565b600060208201905061292b6000830184612907565b92915050565b600081519050919050565b600082825260208201905092915050565b60005b8381101561296b578082015181840152602081019050612950565b60008484015250505050565b6000601f19601f8301169050919050565b600061299382612931565b61299d818561293c565b93506129ad81856020860161294d565b6129b681612977565b840191505092915050565b600060208201905081810360008301526129db8184612988565b905092915050565b6000819050919050565b6129f6816129e3565b8114612a0157600080fd5b50565b600081359050612a13816129ed565b92915050565b600060208284031215612a2f57612a2e61286c565b5b6000612a3d84828501612a04565b91505092915050565b600073ffffffffffffffffffffffffffffffffffffffff82169050919050565b6000612a7182612a46565b9050919050565b612a8181612a66565b82525050565b6000602082019050612a9c6000830184612a78565b92915050565b612aab81612a66565b8114612ab657600080fd5b50565b600081359050612ac881612aa2565b92915050565b60008060408385031215612ae557612ae461286c565b5b6000612af385828601612ab9565b9250506020612b0485828601612a04565b9150509250929050565b600080fd5b7f4e487b7100000000000000000000000000000000000000000000000000000000600052604160045260246000fd5b612b4b82612977565b810181811067ffffffffffffffff82111715612b6a57612b69612b13565b5b80604052505050565b6000612b7d612862565b9050612b898282612b42565b919050565b600067ffffffffffffffff821115612ba957612ba8612b13565b5b602082029050602081019050919050565b600080fd5b6000612bd2612bcd84612b8e565b612b73565b90508083825260208201905060208402830185811115612bf557612bf4612bba565b5b835b81811015612c1e5780612c0a8882612a04565b845260208401935050602081019050612bf7565b5050509392505050565b600082601f830112612c3d57612c3c612b0e565b5b8135612c4d848260208601612bbf565b91505092915050565b60008060408385031215612c6d57612c6c61286c565b5b6000612c7b85828601612a04565b925050602083013567ffffffffffffffff811115612c9c57612c9b612871565b5b612ca885828601612c28565b9150509250929050565b600080600060608486031215612ccb57612cca61286c565b5b6000612cd986828701612ab9565b9350506020612cea86828701612ab9565b9250506040612cfb86828701612a04565b9150509250925092565b6000819050919050565b612d1881612d05565b8114612d2357600080fd5b50565b600081359050612d3581612d0f565b92915050565b600060208284031215612d5157612d5061286c565b5b6000612d5f84828501612d26565b91505092915050565b612d7181612d05565b82525050565b6000602082019050612d8c6000830184612d68565b92915050565b60008060408385031215612da957612da861286c565b5b6000612db785828601612d26565b9250506020612dc885828601612ab9565b9150509250929050565b612ddb816129e3565b82525050565b6000602082019050612df66000830184612dd2565b92915050565b600060208284031215612e1257612e1161286c565b5b6000612e2084828501612ab9565b91505092915050565b612e32816128fb565b8114612e3d57600080fd5b50565b600081359050612e4f81612e29565b92915050565b60008060408385031215612e6c57612e6b61286c565b5b6000612e7a85828601612ab9565b9250506020612e8b85828601612e40565b9150509250929050565b600080fd5b600067ffffffffffffffff821115612eb557612eb4612b13565b5b612ebe82612977565b9050602081019050919050565b82818337600083830152505050565b6000612eed612ee884612e9a565b612b73565b905082815260208101848484011115612f0957612f08612e95565b5b612f14848285612ecb565b509392505050565b600082601f830112612f3157612f30612b0e565b5b8135612f41848260208601612eda565b91505092915050565b60008060008060808587031215612f6457612f6361286c565b5b6000612f7287828801612ab9565b9450506020612f8387828801612ab9565b9350506040612f9487828801612a04565b925050606085013567ffffffffffffffff811115612fb557612fb4612871565b5b612fc187828801612f1c565b91505092959194509250565b60008060408385031215612fe457612fe361286c565b5b6000612ff285828601612ab9565b925050602061300385828601612ab9565b9150509250929050565b7f4e487b7100000000000000000000000000000000000000000000000000000000600052602260045260246000fd5b6000600282049050600182168061305457607f821691505b6020821081036130675761306661300d565b5b50919050565b7f4552433732313a20617070726f76616c20746f2063757272656e74206f776e6560008201527f7200000000000000000000000000000000000000000000000000000000000000602082015250565b60006130c960218361293c565b91506130d48261306d565b604082019050919050565b600060208201905081810360008301526130f8816130bc565b9050919050565b7f4552433732313a20617070726f76652063616c6c6572206973206e6f7420746f60008201527f6b656e206f776e6572206f7220617070726f76656420666f7220616c6c000000602082015250565b600061315b603d8361293c565b9150613166826130ff565b604082019050919050565b6000602082019050818103600083015261318a8161314e565b9050919050565b60006040820190506131a66000830185612a78565b6131b36020830184612a78565b9392505050565b7f4552433732313a2063616c6c6572206973206e6f7420746f6b656e206f776e6560008201527f72206f7220617070726f76656400000000000000000000000000000000000000602082015250565b6000613216602d8361293c565b9150613221826131ba565b604082019050919050565b6000602082019050818103600083015261324581613209565b9050919050565b7f416363657373436f6e74726f6c3a2063616e206f6e6c792072656e6f756e636560008201527f20726f6c657320666f722073656c660000000000000000000000000000000000602082015250565b60006132a8602f8361293c565b91506132b38261324c565b604082019050919050565b600060208201905081810360008301526132d78161329b565b9050919050565b7f4552433732313a20696e76616c696420746f6b656e2049440000000000000000600082015250565b600061331460188361293c565b915061331f826132de565b602082019050919050565b6000602082019050818103600083015261334381613307565b9050919050565b7f4552433732313a2061646472657373207a65726f206973206e6f74206120766160008201527f6c6964206f776e65720000000000000000000000000000000000000000000000602082015250565b60006133a660298361293c565b91506133b18261334a565b604082019050919050565b600060208201905081810360008301526133d581613399565b9050919050565b600067ffffffffffffffff82169050919050565b6133f9816133dc565b82525050565b600061ffff82169050919050565b613416816133ff565b82525050565b600063ffffffff82169050919050565b6134358161341c565b82525050565b600060a0820190506134506000830188612d68565b61345d60208301876133f0565b61346a604083018661340d565b613477606083018561342c565b613484608083018461342c565b9695505050505050565b60008151905061349d816129ed565b92915050565b6000602082840312156134b9576134b861286c565b5b60006134c78482850161348e565b91505092915050565b600081905092915050565b60006134e682612931565b6134f081856134d0565b935061350081856020860161294d565b80840191505092915050565b600061351882856134db565b915061352482846134db565b91508190509392505050565b7f4e487b7100000000000000000000000000000000000000000000000000000000600052603260045260246000fd5b7f4e487b7100000000000000000000000000000000000000000000000000000000600052601160045260246000fd5b6000613599826129e3565b91506135a4836129e3565b92508282019050808211156135bc576135bb61355f565b5b92915050565b7f4e487b7100000000000000000000000000000000000000000000000000000000600052601260045260246000fd5b60006135fc826129e3565b9150613607836129e3565b925082613617576136166135c2565b5b828206905092915050565b600061362d826129e3565b9150613638836129e3565b92508282039050818111156136505761364f61355f565b5b92915050565b600060608201905061366b6000830186612dd2565b6136786020830185612a78565b6136856040830184612dd2565b949350505050565b7f4552433732313a207472616e736665722066726f6d20696e636f72726563742060008201527f6f776e6572000000000000000000000000000000000000000000000000000000602082015250565b60006136e960258361293c565b91506136f48261368d565b604082019050919050565b60006020820190508181036000830152613718816136dc565b9050919050565b7f4552433732313a207472616e7366657220746f20746865207a65726f2061646460008201527f7265737300000000000000000000000000000000000000000000000000000000602082015250565b600061377b60248361293c565b91506137868261371f565b604082019050919050565b600060208201905081810360008301526137aa8161376e565b9050919050565b7f4552433732313a20617070726f766520746f2063616c6c657200000000000000600082015250565b60006137e760198361293c565b91506137f2826137b1565b602082019050919050565b60006020820190508181036000830152613816816137da565b9050919050565b7f4552433732313a207472616e7366657220746f206e6f6e20455243373231526560008201527f63656976657220696d706c656d656e7465720000000000000000000000000000602082015250565b600061387960328361293c565b91506138848261381d565b604082019050919050565b600060208201905081810360008301526138a88161386c565b9050919050565b60006138ba826129e3565b91507fffffffffffffffffffffffffffffffffffffffffffffffffffffffffffffffff82036138ec576138eb61355f565b5b600182019050919050565b7f45524337323155524953746f726167653a2055524920736574206f66206e6f6e60008201527f6578697374656e7420746f6b656e000000000000000000000000000000000000602082015250565b6000613953602e8361293c565b915061395e826138f7565b604082019050919050565b6000602082019050818103600083015261398281613946565b9050919050565b60008190508160005260206000209050919050565b60006020601f8301049050919050565b600082821b905092915050565b6000600883026139eb7fffffffffffffffffffffffffffffffffffffffffffffffffffffffffffffffff826139ae565b6139f586836139ae565b95508019841693508086168417925050509392505050565b6000819050919050565b6000613a32613a2d613a28846129e3565b613a0d565b6129e3565b9050919050565b6000819050919050565b613a4c83613a17565b613a60613a5882613a39565b8484546139bb565b825550505050565b600090565b613a75613a68565b613a80818484613a43565b505050565b5b81811015613aa457613a99600082613a6d565b600181019050613a86565b5050565b601f821115613ae957613aba81613989565b613ac38461399e565b81016020851015613ad2578190505b613ae6613ade8561399e565b830182613a85565b50505b505050565b600082821c905092915050565b6000613b0c60001984600802613aee565b1980831691505092915050565b6000613b258383613afb565b9150826002028217905092915050565b613b3e82612931565b67ffffffffffffffff811115613b5757613b56612b13565b5b613b61825461303c565b613b6c828285613aa8565b600060209050601f831160018114613b9f5760008415613b8d578287015190505b613b978582613b19565b865550613bff565b601f198416613bad86613989565b60005b82811015613bd557848901518255600182019150602085019450602081019050613bb0565b86831015613bf25784890151613bee601f891682613afb565b8355505b6001600288020188555050505b505050505050565b7f416363657373436f6e74726f6c3a206163636f756e7420000000000000000000600082015250565b6000613c3d6017836134d0565b9150613c4882613c07565b601782019050919050565b7f206973206d697373696e6720726f6c6520000000000000000000000000000000600082015250565b6000613c896011836134d0565b9150613c9482613c53565b601182019050919050565b6000613caa82613c30565b9150613cb682856134db565b9150613cc182613c7c565b9150613ccd82846134db565b91508190509392505050565b600081519050919050565b600082825260208201905092915050565b6000613d0082613cd9565b613d0a8185613ce4565b9350613d1a81856020860161294d565b613d2381612977565b840191505092915050565b6000608082019050613d436000830187612a78565b613d506020830186612a78565b613d5d6040830185612dd2565b8181036060830152613d6f8184613cf5565b905095945050505050565b600081519050613d89816128a2565b92915050565b600060208284031215613da557613da461286c565b5b6000613db384828501613d7a565b91505092915050565b6000613dc7826129e3565b9150613dd2836129e3565b9250828202613de0816129e3565b91508282048414831517613df757613df661355f565b5b5092915050565b6000613e09826129e3565b915060008203613e1c57613e1b61355f565b5b600182039050919050565b7f537472696e67733a20686578206c656e67746820696e73756666696369656e74600082015250565b6000613e5d60208361293c565b9150613e6882613e27565b602082019050919050565b60006020820190508181036000830152613e8c81613e50565b9050919050565b7f4552433732313a206d696e7420746f20746865207a65726f2061646472657373600082015250565b6000613ec960208361293c565b9150613ed482613e93565b602082019050919050565b60006020820190508181036000830152613ef881613ebc565b9050919050565b7f4552433732313a20746f6b656e20616c7265616479206d696e74656400000000600082015250565b6000613f35601c8361293c565b9150613f4082613eff565b602082019050919050565b60006020820190508181036000830152613f6481613f28565b905091905056fea264697066735822122006d1acd3948a7af50cca05d5e549b509be79998aaec555a9c37af4945fcf22c464736f6c63430008130033",
    "linkReferences": {},
    "deployedLinkReferences": {}
}