{
    "_format": "hh-sol-artifact-1",
    "contractName": "TokenSale",
    "sourceName": "contracts/TokenSale.sol",
    "abi": [
        {
            "inputs": [
                {
                    "internalType": "uint256",
                    "name": "_ratio",
                    "type": "uint256"
                },
                {
                    "internalType": "uint256",
                    "name": "_price",
                    "type": "uint256"
                },
                {
                    "internalType": "address",
                    "name": "_paymentToken",
                    "type": "address"
                },
                {
                    "internalType": "address",
                    "name": "_nftContract",
                    "type": "address"
                }
            ],
            "stateMutability": "nonpayable",
            "type": "constructor"
        },
        {
            "inputs": [],
            "name": "TokenSale__WithdrawTransferFailed",
            "type": "error"
        },
        {
            "inputs": [],
            "name": "TokenSale__approveForGFTFailed",
            "type": "error"
        },
        {
            "inputs": [],
            "name": "TokenSale__transferGFTFailed",
            "type": "error"
        },
        {
            "inputs": [],
            "name": "TokenSale__tryingToAllowInvalidAmount",
            "type": "error"
        },
        {
            "inputs": [],
            "name": "TokenSale__tryingToAllowInvalidSpender",
            "type": "error"
        },
        {
            "anonymous": false,
            "inputs": [
                {
                    "indexed": false,
                    "internalType": "address",
                    "name": "from",
                    "type": "address"
                },
                {
                    "indexed": false,
                    "internalType": "address",
                    "name": "to",
                    "type": "address"
                },
                {
                    "indexed": false,
                    "internalType": "uint256",
                    "name": "amount",
                    "type": "uint256"
                }
            ],
            "name": "NftPaymentTransferSuccessful",
            "type": "event"
        },
        {
            "anonymous": false,
            "inputs": [
                {
                    "indexed": true,
                    "internalType": "address",
                    "name": "previousOwner",
                    "type": "address"
                },
                {
                    "indexed": true,
                    "internalType": "address",
                    "name": "newOwner",
                    "type": "address"
                }
            ],
            "name": "OwnershipTransferred",
            "type": "event"
        },
        {
            "anonymous": false,
            "inputs": [
                {
                    "indexed": false,
                    "internalType": "address",
                    "name": "owner",
                    "type": "address"
                },
                {
                    "indexed": false,
                    "internalType": "address",
                    "name": "spender",
                    "type": "address"
                },
                {
                    "indexed": false,
                    "internalType": "uint256",
                    "name": "amount",
                    "type": "uint256"
                }
            ],
            "name": "TokenSaleApprovedForGFT",
            "type": "event"
        },
        {
            "inputs": [],
            "name": "buyTokens",
            "outputs": [],
            "stateMutability": "payable",
            "type": "function"
        },
        {
            "inputs": [],
            "name": "mintNft",
            "outputs": [],
            "stateMutability": "nonpayable",
            "type": "function"
        },
        {
            "inputs": [],
            "name": "owner",
            "outputs": [
                {
                    "internalType": "address",
                    "name": "",
                    "type": "address"
                }
            ],
            "stateMutability": "view",
            "type": "function"
        },
        {
            "inputs": [],
            "name": "renounceOwnership",
            "outputs": [],
            "stateMutability": "nonpayable",
            "type": "function"
        },
        {
            "inputs": [],
            "name": "s_nftPrice",
            "outputs": [
                {
                    "internalType": "uint256",
                    "name": "",
                    "type": "uint256"
                }
            ],
            "stateMutability": "view",
            "type": "function"
        },
        {
            "inputs": [],
            "name": "s_ratio",
            "outputs": [
                {
                    "internalType": "uint256",
                    "name": "",
                    "type": "uint256"
                }
            ],
            "stateMutability": "view",
            "type": "function"
        },
        {
            "inputs": [
                {
                    "internalType": "address",
                    "name": "newOwner",
                    "type": "address"
                }
            ],
            "name": "transferOwnership",
            "outputs": [],
            "stateMutability": "nonpayable",
            "type": "function"
        },
        {
            "inputs": [],
            "name": "withdraw",
            "outputs": [],
            "stateMutability": "nonpayable",
            "type": "function"
        }
    ],
    "bytecode": "0x60c06040523480156200001157600080fd5b5060405162000f5738038062000f57833981810160405281019062000037919062000248565b620000576200004b620000d760201b60201c565b620000df60201b60201c565b83600181905550826002819055508173ffffffffffffffffffffffffffffffffffffffff1660808173ffffffffffffffffffffffffffffffffffffffff16815250508073ffffffffffffffffffffffffffffffffffffffff1660a08173ffffffffffffffffffffffffffffffffffffffff168152505050505050620002ba565b600033905090565b60008060009054906101000a900473ffffffffffffffffffffffffffffffffffffffff169050816000806101000a81548173ffffffffffffffffffffffffffffffffffffffff021916908373ffffffffffffffffffffffffffffffffffffffff1602179055508173ffffffffffffffffffffffffffffffffffffffff168173ffffffffffffffffffffffffffffffffffffffff167f8be0079c531659141344cd1fd0a4f28419497f9722a3daafe3b4186f6b6457e060405160405180910390a35050565b600080fd5b6000819050919050565b620001bd81620001a8565b8114620001c957600080fd5b50565b600081519050620001dd81620001b2565b92915050565b600073ffffffffffffffffffffffffffffffffffffffff82169050919050565b60006200021082620001e3565b9050919050565b620002228162000203565b81146200022e57600080fd5b50565b600081519050620002428162000217565b92915050565b60008060008060808587031215620002655762000264620001a3565b5b60006200027587828801620001cc565b94505060206200028887828801620001cc565b93505060406200029b8782880162000231565b9250506060620002ae8782880162000231565b91505092959194509250565b60805160a051610c69620002ee60003960006104170152600081816102ff015281816104ca01526107c10152610c696000f3fe60806040526004361061007b5760003560e01c8063b9c9620b1161004e578063b9c9620b14610104578063c2229fea1461012f578063d0febe4c14610146578063f2fde38b146101505761007b565b80633ccfd60b146100805780636a62ab8814610097578063715018a6146100c25780638da5cb5b146100d9575b600080fd5b34801561008c57600080fd5b50610095610179565b005b3480156100a357600080fd5b506100ac61022d565b6040516100b9919061087a565b60405180910390f35b3480156100ce57600080fd5b506100d7610233565b005b3480156100e557600080fd5b506100ee610247565b6040516100fb91906108d6565b60405180910390f35b34801561011057600080fd5b50610119610270565b604051610126919061087a565b60405180910390f35b34801561013b57600080fd5b50610144610276565b005b61014e6104b6565b005b34801561015c57600080fd5b5061017760048036038101906101729190610922565b610558565b005b6101816105db565b600047905060003373ffffffffffffffffffffffffffffffffffffffff16826040516101ac90610980565b60006040518083038185875af1925050503d80600081146101e9576040519150601f19603f3d011682016040523d82523d6000602084013e6101ee565b606091505b5050905080610229576040517f57b5292400000000000000000000000000000000000000000000000000000000815260040160405180910390fd5b5050565b60015481565b61023b6105db565b6102456000610659565b565b60008060009054906101000a900473ffffffffffffffffffffffffffffffffffffffff16905090565b60025481565b6000610285333060025461071d565b9050806102be576040517fbb3146f300000000000000000000000000000000000000000000000000000000815260040160405180910390fd5b7f88ccc49d44895d39f4c374ca22c45ca4f0f7d822865ea51968f3591ff100fb2033306002546040516102f393929190610995565b60405180910390a160007f000000000000000000000000000000000000000000000000000000000000000073ffffffffffffffffffffffffffffffffffffffff16638a6b44a533306002546040518463ffffffff1660e01b815260040161035c93929190610995565b6020604051808303816000875af115801561037b573d6000803e3d6000fd5b505050506040513d601f19601f8201168201806040525081019061039f9190610a04565b9050806103d8576040517f9202955100000000000000000000000000000000000000000000000000000000815260040160405180910390fd5b7fe14f06c2a9a6c10b8c22088b710cc8006566b245310f346be427d33e5728c270333060025460405161040d93929190610995565b60405180910390a17f000000000000000000000000000000000000000000000000000000000000000073ffffffffffffffffffffffffffffffffffffffff1663c75ee784336040518263ffffffff1660e01b815260040161046e91906108d6565b6020604051808303816000875af115801561048d573d6000803e3d6000fd5b505050506040513d601f19601f820116820180604052508101906104b19190610a5d565b505050565b6000600154346104c69190610ab9565b90507f000000000000000000000000000000000000000000000000000000000000000073ffffffffffffffffffffffffffffffffffffffff166340c10f1933836040518363ffffffff1660e01b8152600401610523929190610afb565b600060405180830381600087803b15801561053d57600080fd5b505af1158015610551573d6000803e3d6000fd5b5050505050565b6105606105db565b600073ffffffffffffffffffffffffffffffffffffffff168173ffffffffffffffffffffffffffffffffffffffff16036105cf576040517f08c379a00000000000000000000000000000000000000000000000000000000081526004016105c690610ba7565b60405180910390fd5b6105d881610659565b50565b6105e3610859565b73ffffffffffffffffffffffffffffffffffffffff16610601610247565b73ffffffffffffffffffffffffffffffffffffffff1614610657576040517f08c379a000000000000000000000000000000000000000000000000000000000815260040161064e90610c13565b60405180910390fd5b565b60008060009054906101000a900473ffffffffffffffffffffffffffffffffffffffff169050816000806101000a81548173ffffffffffffffffffffffffffffffffffffffff021916908373ffffffffffffffffffffffffffffffffffffffff1602179055508173ffffffffffffffffffffffffffffffffffffffff168173ffffffffffffffffffffffffffffffffffffffff167f8be0079c531659141344cd1fd0a4f28419497f9722a3daafe3b4186f6b6457e060405160405180910390a35050565b60003073ffffffffffffffffffffffffffffffffffffffff168373ffffffffffffffffffffffffffffffffffffffff1614610784576040517f1a9250e100000000000000000000000000000000000000000000000000000000815260040160405180910390fd5b60025482146107bf576040517f01d3954a00000000000000000000000000000000000000000000000000000000815260040160405180910390fd5b7f000000000000000000000000000000000000000000000000000000000000000073ffffffffffffffffffffffffffffffffffffffff1663028e1e5a8585856040518463ffffffff1660e01b815260040161081c93929190610995565b600060405180830381600087803b15801561083657600080fd5b505af115801561084a573d6000803e3d6000fd5b50505050600190509392505050565b600033905090565b6000819050919050565b61087481610861565b82525050565b600060208201905061088f600083018461086b565b92915050565b600073ffffffffffffffffffffffffffffffffffffffff82169050919050565b60006108c082610895565b9050919050565b6108d0816108b5565b82525050565b60006020820190506108eb60008301846108c7565b92915050565b600080fd5b6108ff816108b5565b811461090a57600080fd5b50565b60008135905061091c816108f6565b92915050565b600060208284031215610938576109376108f1565b5b60006109468482850161090d565b91505092915050565b600081905092915050565b50565b600061096a60008361094f565b91506109758261095a565b600082019050919050565b600061098b8261095d565b9150819050919050565b60006060820190506109aa60008301866108c7565b6109b760208301856108c7565b6109c4604083018461086b565b949350505050565b60008115159050919050565b6109e1816109cc565b81146109ec57600080fd5b50565b6000815190506109fe816109d8565b92915050565b600060208284031215610a1a57610a196108f1565b5b6000610a28848285016109ef565b91505092915050565b610a3a81610861565b8114610a4557600080fd5b50565b600081519050610a5781610a31565b92915050565b600060208284031215610a7357610a726108f1565b5b6000610a8184828501610a48565b91505092915050565b7f4e487b7100000000000000000000000000000000000000000000000000000000600052601160045260246000fd5b6000610ac482610861565b9150610acf83610861565b9250828202610add81610861565b91508282048414831517610af457610af3610a8a565b5b5092915050565b6000604082019050610b1060008301856108c7565b610b1d602083018461086b565b9392505050565b600082825260208201905092915050565b7f4f776e61626c653a206e6577206f776e657220697320746865207a65726f206160008201527f6464726573730000000000000000000000000000000000000000000000000000602082015250565b6000610b91602683610b24565b9150610b9c82610b35565b604082019050919050565b60006020820190508181036000830152610bc081610b84565b9050919050565b7f4f776e61626c653a2063616c6c6572206973206e6f7420746865206f776e6572600082015250565b6000610bfd602083610b24565b9150610c0882610bc7565b602082019050919050565b60006020820190508181036000830152610c2c81610bf0565b905091905056fea2646970667358221220c65da71d2726e8b6ba89e1db8222679e08b8f6957c821352b3b23b8d6e84c04564736f6c63430008130033",
    "linkReferences": {},
    "deployedLinkReferences": {}
}